:1000000036C000001FC100001DC100001BC1000060
:1000100019C1000017C1000015C1000013C1000084
:1000200011C100000FC100000DC100000CC1000093
:1000300009C1000007C1000005C1000003C10000A4
:1000400001C10000FFC00000FDC00000FBC00000B7
:10005000F9C00000F7C00000F5C00000F3C00000C8
:10006000F1C00000EFC00000010001048000112475
:100070001FBECFEFD8E0DEBFCDBFE8E6F0E040E046
:1000800017C0B591A59135912591059107FD0CC03B
:1000900095918591EF01F92FE82F05900D92A21708
:1000A000B307D9F7FE0104C01D92A217B307E1F709
:0E00B000ED36F40731F703D000C0F894FFCF0F
:1000BE0079D07894569A579A02C05F9A5AD02FEFF9
:1000CE0083ED90E3215080409040E1F700C00000A6
:1000DE002CD03CD0813089F716D0082F14D0C82FE1
:1000EE0012D0182F10D0D82F0ED02C2F30E0200F7A
:1000FE00311D210F311D2D0F311D90E028173907AD
:06010E00E9F65E9ADBCF6A
:1001140028E030E080E0309BFECF90EA9A95F1F73A
:10012400880F309B03C081603099FECF2150310984
:0401340091F70895A2
:10013800389A40982FEF80EE90E021508040904010
:10014800E1F700C00000409A20EA2A95F1F73898B4
:02015800089508
:10015A0085ED8A95F1F70000309B02C080E0089592
:10016A008FE391E00197F1F700C0000086B181703A
:06017A003099FECF08954C
:1001800080910301813009F008951092030127D076
:1001900080ED11D080E00FD022D081ED0CD015D0B1
:1001A0008093020112D08093010125D08093000139
:0201B0001EC06F
:0401B2003CD02AC053
:1001B6008093BB0084E88093BC008091BC0087FFDD
:0401C600FCCF0895CD
:1001CA0084EC8093BC008091BC0087FFFCCF8091B7
:0401DA00BB000895C9
:1001DE0084EA8093BC008091BC0087FFFCCF089519
:0801EE0084E98093BC00089530
:1001F60084E88093BC008091BC0087FFFCCF80918F
:04020600BB0008959C
:10020A00E1E8F0E080818C60808383E294EF909350
:10021A00890080938800EFE6F0E080818260808325
:02022A00089535
:10022C00E9EBF0E080818C7F808388E48093B800D8
:08023C0084E08093BC000895EA
:02024400DDCE0D
:100246001F920F920FB60F9211248F9381E0809325
:0E02560003018F910F900FBE0F901F9018950F
:00000001FF
