:1000000036C0000020C100001EC100001CC100005D
:100010001AC1000018C1000016C1000014C1000080
:1000200012C1000010C100000EC100000DC100008F
:100030000AC1000008C1000006C1000004C10000A0
:1000400002C1000000C10000FEC00000FCC00000B2
:10005000FAC00000F8C00000F6C00000F4C00000C4
:10006000F2C00000F0C00000010001018000112476
:100070001FBECFEFD8E0DEBFCDBFE8E6F0E040E046
:1000800017C0B591A59135912591059107FD0CC03B
:1000900095918591EF01F92FE82F05900D92A21708
:1000A000B307D9F7FE0104C01D92A217B307E1F709
:0E00B000ED36F40731F703D000C0F894FFCF0F
:1000BE009DD07894569A579A02C05F9A5AD02FEFD5
:1000CE0083ED90E3215080409040E1F700C00000A6
:1000DE002CD03CD0813089F716D0082F14D0C82FE1
:1000EE0012D0182F10D0D82F0ED02C2F30E0200F7A
:1000FE00311D210F311D2D0F311D90E028173907AD
:06010E00E9F65E9ADBCF6A
:1001140028E030E080E0309BFECF90EA9A95F1F73A
:10012400880F309B03C081603099FECF2150310984
:0401340091F70895A2
:10013800389A40982FEF80EE90E021508040904010
:10014800E1F700C00000409A20EA2A95F1F73898B4
:02015800089508
:10015A0085ED8A95F1F70000309B02C080E0089592
:10016A008FE391E00197F1F700C0000086B181703A
:06017A003099FECF08954C
:1001800080910001813019F0809100010895109252
:10019000000184EA8093BC008091BC0087FFFCCF03
:1001A00080ED8093BB0084E88093BC008091BC000C
:1001B00087FFFCCF1092BB0084E88093BC00809145
:1001C000BC0087FFFCCF84EA8093BC008091BC0018
:1001D00087FFFCCF81ED8093BB0084E88093BC0057
:1001E0008091BC0087FFFCCF81E090E022D084E9C1
:0A01F0008093BC0080910001089587
:1001FA00E9EBF0E080818C7F808388E48093B8000B
:10020A0084E08093BC00E1E8F0E080818C60808328
:10021A0083E294EF9093890080938800EFE6F0E000
:08022A00808182608083089549
:1002320084E88093BC008091BC0087FFFCCF809152
:04024200BB00089560
:02024600DCCE0C
:100248001F920F920FB60F9211248F9381E0809323
:0E02580000018F910F900FBE0F901F90189510
:00000001FF
