:1000000036C00000E1C00000DFC00000DDC000001D
:10001000DBC00000D9C00000D7C00000D5C0000080
:10002000D3C00000D1C00000CFC00000CEC000008F
:10003000CBC00000C9C00000C7C00000C5C00000A0
:10004000C3C00000C1C00000BFC00000BDC00000B0
:10005000BBC00000B9C00000B7C00000B5C00000C0
:10006000B3C00000B1C000000100010180001124F4
:100070001FBECFEFD8E0DEBFCDBFE8E6F0E040E046
:1000800017C0B591A59135912591059107FD0CC03B
:1000900095918591EF01F92FE82F05900D92A21708
:1000A000B307D9F7FE0104C01D92A217B307E1F709
:0E00B000ED36F40731F70AD002C0F894FFCF06
:0E00BE00EC014CD048D0CE0147D0CE0146D048
:1000CC008091B9008C7F8093B90088E48093B8004C
:1000DC0084E08093BC00809181008C6080938100CF
:1000EC0083E294EF909389008093880080916F0055
:1000FC00826080936F007894569A579A01C05F9AE9
:10010C002FEF83ED90E3215080409040E1F700C049
:10011C00000043D02FD0813091F71AD0082F18D07F
:10012C00C82F16D0182F14D0D82F12D02C2F30E067
:10013C00200F311D210F311D2D0F311D90E028177F
:08014C003907F1F65E9ADCCFE1
:0201540008950C
:0201560008950A
:02015800B0DF16
:02015A00089506
:10015C0028E030E080E0309BFECF90EA9A95F1F7F2
:10016C00880F309B03C081603099FECF215031093C
:04017C0091F708955A
:1001800085ED8A95F1F70000309B02C080E008956C
:100190008FE391E00197F1F700C0000086B1817014
:0601A0003099FECF089526
:1001A600389A40982FEF80EE90E0215080409040A2
:1001B600E1F700C00000409A20EA2A95F1F7389846
:0201C60008959A
:0201C8001BCF4B
:0C01CA008F9381E0809300018F911895C5
:00000001FF
