:100000003CC000000C94B90F0C94B90F0C94B90FBC
:100010000C94B90F0C94B90F0C94B90F0C94B90F40
:100020000C94B90F0C94B90F0C94B90F0C94C41024
:100030000C94B90F0C94B90F0C94B90F0C94B90F20
:100040000C94B90F0C94B90F0C94CA100C940C11A9
:100050000C94B90F0C94B90F0C94B90F0C94B90F00
:100060000C94B90F0C94B90F0100012280012201F8
:100070002400228D012401B1800011241FBECFEF86
:10008000D8E0DEBFCDBFE8E6F0E040E017C0B591B4
:10009000A59135912591059107FD0CC0959185910C
:1000A000EF01F92FE82F05900D92A217B307D9F7AA
:1000B000FE0104C01D92A217B307E1F7E937F40768
:0A00C00031F70AD002C0F894FFCF18
:0E00CA00EC011BD017D0CE0116D0CE0115D000
:1000D80060D215D078946AE470E280E01AD04ED0ED
:1000E8008ED08091B0018130D1F780E091E0A9D124
:0600F8001092B001F4CFEC
:0200FE00089563
:02010000089560
:02010200E1DF3B
:0201040008955C
:1001060087E68093C40088E98093C10086E08093E7
:04011600C200089586
:10011A00CF92DF92EF926B01E82EFB014491E7FC4C
:10012A004081442309F150E020912E0130E02F5FF5
:10013A003F4F2F773327922F80912D019817E1F3A4
:10014A00E0912E01F0E0E15DFE4F408320932E0105
:10015A005F5FAE2DC601850F911DA11DFC01449163
:10016A00A7FD40814111E0CF8091C1008062809358
:0A017A00C100EF90DF90CF900895D0
:1001840080912C01813009F0089510922C0119D22C
:1001940080ED03D280E001D214D281EDFED107D2EA
:1001A4008093280104D28093270117D280932601DB
:1001B40010D280912801982F92959F708F702AE019
:1001C400929F800D112480932B0180912701982FF9
:1001D40092959F708F702AE0929F800D11248093D6
:1001E4002A0180912601982F96959695969596705A
:1001F400292F220F220F920F8F70890F80932901CC
:0202040008955B
:10020600FF920F931F93CF93DF93CDB7DEB7CA5CF0
:10021600D1090FB6F894DEBF0FBECDBF90912B016A
:1002260080912201981769F080912B018093220119
:10023600809125018F5F8093250190912301891775
:1002460068F4C653DF4F0FB6F894DEBF0FBECDBFBE
:10025600DF91CF911F910F91FF9008951092250184
:10026600C653DF4F1882CA5CD040C753DF4F18828F
:10027600C95CD040BE0167537F4FCE0186539F4F66
:10028600C5D11A821982FE01339692E6DF011D92CC
:100296009A95E9F7882309F498C080912901873057
:1002A60008F086C070E56CE356E19FE02BE730E28C
:1002B60040E0C653DF4F8881CA5CD040891708F4F6
:1002C600A7C0581708F4A4C0C753DF4F9881C95C6C
:1002D600D040961718F0791708F0AFC060912B013F
:1002E60050912A01809129011F929F934F933F932A
:1002F6002F931F926F931F925F931F928F9389ED97
:1003060090E2A0E0AF939F938F93CE0101969F93C7
:100316008F936CD10FB6F894DEBF0FBECDBFC75317
:10032600DF4F9881C95CD040C653DF4F8881CA5CD5
:10033600D040FF24F39424E830E240E070912B0192
:1003460060912A01509129014F933F932F931F9259
:100356009F931F928F931F927F931F926F931F926B
:100366005F938DE191E2A0E0AF939F938F938E010F
:100376000B591F4F1F930F9339D1B80180E8CADE7E
:100386000FB6F894DEBF0FBECDBFFF2009F43DC007
:10039600809124018F5F80932401823008F451CF2D
:1003A600BE016F5F7F4F80E8B5DE1092240149CF12
:1003B60080912901833108F075CF76E462E35EE12E
:1003C60094E124E730E240E074CF20912B01909134
:1003D6002A01809129011F922F931F929F931F92AA
:1003E6008F938EE491E2A0E0AF939F938F938E015B
:1003F6000B591F4F1F930F93F9D0B80180E88ADE7F
:100406000FB6F894DEBF0FBECDBF1092240119CFF0
:1004160060912B0150912A01909129011F928F938F
:100426004F933F932F931F926F931F925F931F9249
:100436009F9382E990E2A0E065CFF12C2BE830E2B1
:0404460040E07CCF47
:10044A00CF92DF92EF920F931F93CF93DF93EC013A
:10045A006C0120E8E22E07E010E026E73FE140E0E9
:10046A008E2DB60112D1892B09F43DC009E010E0A6
:10047A002BED3FE140E08E2DB60107D1892B09F023
:10048A0042C08985880F8056182F110F110F810FCE
:10049A009A859053182F190F9C85990F9056092FFA
:1004AA00000F000F900F2D852053092F020F1831CE
:1004BA0078F40C3368F48F85880F8056982F990F3B
:1004CA00990F890F98899053C82FC90FCC3318F107
:1004DA0061E070E280E0DF91CF911F910F91EF9080
:1004EA00DF90CF9015CE2796BE0180E803D19C01FC
:1004FA00225031092B33310550F4809323016EE7E2
:10050A007FE180E0E8CF67E270E280E0E4CF65EA6D
:10051A007FE180E0E0CF52D080ED3CD080E03AD05D
:10052A00DDECCD9F912D112496959695969540E1F7
:10053A00949F900111248C2F4AE0949F80191124D2
:10054A00822B28D00D9F912D1124969596959695DC
:10055A0080E1989F90011124802F4AE0949F80198E
:10056A001124822B17D01D9FD12D1124D695D695F3
:10057A00D69520E1D29FC00111244AE0D49F1019D8
:10058A001124812B07D022D065EE7FE180E0A3CF32
:04059A000AD1F8C0CA
:10059E008093BB0084E88093BC008091BC0087FFF1
:0405AE00FCCF0895E1
:1005B20084EC8093BC008091BC0087FFFCCF8091CB
:0405C200BB000895DD
:1005C60084EA8093BC008091BC0087FFFCCF08952D
:0805D60084E98093BC00089544
:1005DE0084E88093BC008091BC0087FFFCCF8091A3
:0405EE00BB000895B1
:1005F200A0E0B0E0EEEFF2E01CC19E01265F3F4FAB
:100602004F81588569858D819E81DDD0E2E0F6C0FB
:10061200CF92DF92EF92FF920F931F93CF93DF93CC
:10062200389A40982FEF30EE40E021503040404061
:10063200E1F700C00000409AE0EAEA95F1F7389845
:10064200F5EDFA95F1F70000309B0AC080E0DF91EA
:10065200CF911F910F91FF90EF90DF90CF9008956F
:100662008B017C0104D1882389F3EFD0C82EEDD011
:10067200C82FEBD0D82EE9D0D82FE7D0CC0DCD0D96
:10068200CD0F8C13E3CFF801C082F701D08281E055
:02069200DECFB9
:10069400CF92DF92EF920F931F936B01E82E011517
:1006A400110519F101501109F6018491E7FC8081CB
:1006B400882399F0F901949147FD9081992369F079
:1006C4000115110551F0891308C08FEFC81AD80A13
:1006D400E80A2F5F3F4F4F4FE5CF90E0F901249197
:1006E40047FD2081821B910902C080E090E01F91A8
:0A06F4000F91EF90DF90CF90089572
:1006FE00CF939B01482FF901849147FD8081803271
:10070E00C9F1682F082E000C770B695071096530FE
:10071E00710580F18B3249F5A0E0B0E02F5F3F4FBD
:10072E004F4F02C0A0E0B0E080E090E0CAE0F901D7
:10073E00649147FD6081062E000C770B60537109A2
:10074E006A30710560F4C89FF001C99FF00D112445
:10075E002F5F3F4F4F4FCF01861B970BE8CFAB2B31
:10076E0069F491958195910909C08D32D9F6A1E070
:10077E00B0E0D4CF2F5F3F4F4F4FBDCFCF910895F5
:10078E00E1E8F0E080818C60808383E294EF9093C7
:10079E00890080938800EFE6F0E08081826080839C
:0207AE000895AC
:1007B000E9EBF0E080818C7F808388E48093B8004F
:0807C00084E08093BC00089561
:1007C8000F931F9389019A01462F6FEF7FE757D048
:0607D8001F910F9108952E
:1007DE002A88398848885F846E847D848C849B84C3
:1007EE00AA84B984C884DF80EE80FD800C811B81D1
:1007FE00AA81B981CE0FD11D0FB6F894DEBF0FBE00
:06080E00CDBFED010895CD
:100814002F923F924F925F926F927F928F929F920C
:10082400AF92BF92CF92DF92EF92FF920F931F93FA
:10083400CF93DF93CDB7DEB7CA1BDB0B0FB6F894AB
:08084400DEBF0FBECDBF099419
:10084C0028E030E080E0309BFECF90EA9A95F1F7FB
:10085C00880F309B03C081603099FECF2150310945
:04086C0091F7089563
:100870008FE391E00197F1F700C0000086B181702D
:060880003099FECF08953F
:100886006F927F928F92EF92FF920F931F93CF9367
:10089600DF93CDB7DEB761970FB6F894DEBF0FBE14
:1008A600CDBFFE01319651E1DF011D925A95E9F760
:1008B600A2E0B1E0BA83A9839C838B8377FF09C04A
:1008C6008FE490E090932101809320018FEF9FEFBA
:1008D60018C03901842E7C01615071097F836E83B3
:1008E6009801682DA301CF011CD0488559852E811A
:1008F6003F814217530708F49A01F701E20FF31FED
:10090600108261960FB6F894DEBF0FBECDBFDF91A1
:10091600CF911F910F91FF90EF908F907F906F90E6
:02092600089532
:10092800A2E0B0E0E9E9F4E07FCF8C013A832983C3
:100938009E012F5F3F4F09D0F801208124FF02C09C
:0A0948008FEF9FEF2296E4E054CFFA
:10095200A3EAB0E0EEEAF4E05CCF4C015901C756DD
:10096200DF4F488359836A83C959D040212C312CE7
:100972006E012BE8C20ED11C85E2782E260130E8EA
:10098200632ECE018D569F4FC456DF4F99838883C5
:10099200CC59D0409C0140E8CF55DF4F28833983A2
:1009A2004A83C15AD040C756DF4F4881C959D04007
:1009B200C656DF4F5881CA59D040C556DF4F6881AD
:1009C200CB59D040FA01849167FD8081882309F4D4
:1009D200B3C3CF57DF4F19821882C158D0408FEF6F
:1009E2009FEFCD57DF4F99838883C358D040CB57B1
:1009F200DF4F19821882C558D040A1E0B0E0AC0F99
:100A0200BD1FC957DF4FB983A883C758D040E0E85C
:100A1200F0E0C757DF4FF983E883C958D040CA01D5
:100A2200A62FE12CF12CFC012491A7FD208121119C
:100A32001AC0E114F104F9F09701C401B5D4C75604
:100A4200DF4F88819981AA81C959D0408E0D9F1D9F
:100A5200A11DF7FCAA95C756DF4F88839983AA8305
:100A6200C959D04008C00196A11D253211F3FFEFEC
:100A7200EF1AFF0AD8CFC756DF4F88819981AA8122
:100A8200C959D040FC012491A7FD2081253209F0EB
:100A920041C39C014A2F2F5F3F4F4F4FC256DF4F3A
:100AA200288339834A83CE59D040C756DF4F2883E3
:100AB20039834A83C959D040C756DF4F888199810B
:100AC200AA81C959D040FC012491A7FD20812B3273
:100AD20041F4CF57DF4F28813981C158D04024607B
:100AE2000BC02C32CCF02D3259F5CF57DF4F288175
:100AF2003981C158D0402160CF57DF4F39832883D5
:100B0200C158D0400196A11DC756DF4F88839983F3
:100B1200AA83C959D040D0CF203241F4CF57DF4FFA
:100B220028813981C158D0402860E6CF233291F420
:100B3200CF57DF4F28813981C158D0402061DCCFA7
:100B4200203341F4CF57DF4F28813981C158D0403B
:100B52002260D2CF2A3299F50196A11DC756DF4FE6
:100B620088839983AA83C959D040D501ED91FC911C
:100B72001197CF0102968D939C9380819181CB57DF
:100B8200DF4F99838883C558D04097FF3DC0CF5728
:100B9200DF4F28813981C158D040B1E02B27CF5790
:100BA200DF4F39832883C158D040919581959109AF
:100BB200CB57DF4F99838883C558D04025C0BC01ED
:100BC2008A2F9CDDCB57DF4F99838883C558D0404D
:100BD200C756DF4F288139814A81C959D040F9016E
:100BE200849147FD8081082E000C990BC0970A97CB
:100BF20058F42F5F3F4F4F4FC756DF4F288339833B
:100C02004A83C959D040E4CFCF57DF4F88819981B9
:100C1200C158D04080FF07C08D7FCF57DF4F9983E7
:100C22008883C158D040C756DF4F88819981AA81F5
:100C3200C959D040FC012491A7FD20812E3209F030
:100C420057C0CD57DF4F19821882C358D0409C013C
:100C52004A2F2F5F3F4F4F4FC756DF4F28833983AD
:100C62004A83C959D040F901549147FD50815A3203
:100C7200D1F40296A11DC756DF4F88839983AA83B8
:100C8200C959D040D501ED91FC911197CF0102963F
:100C92008D939C9380819181CD57DF4F9983888377
:100CA200C358D04025C0842FB90128DDCD57DF4F6E
:100CB20099838883C358D040C756DF4F2881398132
:100CC2004A81C959D040F901849147FD8081082E9B
:100CD200000C990BC0970A9758F42F5F3F4F4F4F64
:100CE200C756DF4F288339834A83C959D040E4CF9E
:100CF200CE0187569F4F09D3182FC756DF4F288141
:100D0200C959D040C656DF4F8881CA59D040C5560E
:100D1200DF4F9881CB59D040E22FF82F849197FD75
:100D22008081082E000C990BE8D28936910509F4CE
:100D320058C0B4F48336910509F456C144F485329F
:100D4200910509F491C18136910529F1A3C1843637
:100D5200910509F446C0883691050CF41FC19AC169
:100D62008037910509F4C2C04CF48E36910509F41E
:100D72000CC18F36910509F476C08CC18537910577
:100D820009F450C08837910509F48EC08337910564
:100D920009F080C148C1612F70E0A501C6018AD265
:100DA200892B09F4A7C1C756DF4F88819981AA818F
:100DB200C959D0409C014A2F2F5F3F4F4F4FC75612
:100DC200DF4F288339834A83C959D040FC012491DB
:100DD200A7FD2081A601BE016F577F4FC4018AD2B1
:100DE20086C1612F70E0950141E050E0C601A9D1B2
:100DF200892B09F47FC1C756DF4F88819981AA8167
:100E0200C959D0400196A11DC756DF4F88839983E7
:100E1200AA83C959D040A601BE016F577F4FC401B2
:100E2200F6D265C1612F70E0950140E050E0C60145
:100E320088D1892B09F45EC1C756DF4F8881998119
:100E4200AA81C959D0400196A11DC756DF4F888398
:100E52009983AA83C959D040A601BE016F577F4F1B
:100E6200C4018BD344C1612F70E0950140E050E092
:100E7200C60167D1892B09F43DC1C756DF4F88816E
:100E82009981AA81C959D0400196A11DC756DF4F49
:100E920088839983AA83C959D040A601BE016F579E
:100EA2007F4FC401BED323C1612F70E0950140E0A2
:100EB20050E0C60146D1892B09F41CC1C756DF4F49
:100EC20088819981AA81C959D0409C014A2F2F5FFC
:100ED2003F4F4F4FC756DF4F288339834A83C95943
:100EE200D040FC012491A7FD208148C0950140E03B
:100EF20050E060EF70E0C60124D1892B09F4FAC0FA
:100F0200C756DF4F88819981AA81C959D04001967D
:100F1200A11DC756DF4F88839983AA83C959D04040
:100F220086E021E732E240E0F901DE01AD56BF4F33
:100F3200742FDDD3D6012C9111963C911197129604
:100F42004C91129713965C91139714966C91149787
:100F520015967C91159716968C91169717969C91DB
:100F6200A0E0D2D351F400E010E0CF55DF4F28814A
:100F720039814A81C15AD040B5C028E7A601BE01D5
:100F82006F577F4FC401CCD3B2C0612F70E095017F
:100F9200A1014E0D5F1DC601FCD4ACC0612F70E0F3
:100FA200A501C60187D1892B09F4A4C0C756DF4F1A
:100FB20088819981AA81C959D0409C014A2F2F5F0B
:100FC2003F4F4F4FC756DF4F288339834A83C95952
:100FD200D040FC012491A7FD2081A601BE016F57DC
:100FE2007F4FC40187D183C0103809F083C0C75630
:100FF200DF4F88819981AA81C959D0400196A11DEC
:10100200C756DF4F88839983AA83C959D040D50137
:10101200ED91FC911197CF0102968D939C93808163
:10102200F60180835BC0103809F064C0C756DF4FF9
:1010320088819981AA81C959D0400196A11DC756BC
:10104200DF4F88839983AA83C959D040D501ED9196
:10105200FC911197CF0103968D939C93208131814E
:10106200428100E010E03EC0103809F043C0C7568C
:10107200DF4F88819981AA81C959D0400196A11D6B
:10108200C756DF4F88839983AA83C959D040F60196
:10109200708224C0D6017C92C256DF4F28813981EA
:1010A2004A81CE59D040C756DF4F288339834A83BD
:1010B200C959D040CF57DF4F19821882C158D0404A
:1010C200CB57DF4F19821882C558D0408FEF9FEF60
:1010D200CD57DF4F99838883C358D04001E010E099
:1010E200462D9201BE016F577F4FC401BED48E0DB3
:1010F2009F1D11C0C756DF4F88819981AA81C959A6
:10110200D0400196A11DC756DF4F88839983AA83D9
:10111200C959D040C7017101E80EF91EE214F30467
:101122004CF48FE490E090932101809320018FEFA3
:101132009FEF03C0170137CCC101CD55DF4FE2E16C
:021142004DCB93
:101144000F931F93CF93DF93FC01D9016838710586
:1011540031F194F461387105B1F12CF46038710502
:1011640009F478C09FC06238710509F459C0643825
:10117400710509F46FC096C0603A710509F448C05E
:101184002CF46039710509F44BC08CC0603C7105C6
:1011940009F476C0603F710509F472C083C0CD9133
:1011A400DC911197CE0102968D939C93452B39F0D7
:1011B4009881892F880F880B908381835BC08881F5
:1011C4008083118268C0CD91DC911197CE01049681
:1011D4008D939C93452B99F088819981AA81BB8139
:1011E400AC01BD01770F440B542FBA018083918366
:1011F400A283B383448345834683478328C00881FD
:1012040019812A813B81008311832283338345C062
:10121400CD91DC911197CE0102968D939C9323C0BE
:10122400CD91DC911197CE0108968D939C93788192
:1012340069815A814B813C812D819E818F8170838C
:10124400618352834383348325839683878381E038
:1012540090E02AC0CD91DC911197CE0102968D9336
:101264009C93452BA1F099812881892F880F880BA5
:101274002083918382838383848385838683E6CFDB
:10128400CD91DC911197CE0102968D939C930881A8
:1012940019810083118312821382148215821682AB
:1012A4001782D5CF80E090E0DF91CF911F910F910D
:0212B40008959B
:1012B600FA0160387105CCF0623871051CF06338AC
:1012C600710599F4A081B1819D012C5F3F4F318357
:1012D60020834D915D916D917C91FC0140835183FA
:1012E6006283738381E090E0089580E090E0089542
:0612F60080E090E0089585
:1012FC009C01215431092A31310508F4806208958A
:10130C00CF92DF92EF92DC0190E0292F30E0220F98
:10131C00331F6901032E000CEE086E2DA6014958EF
:10132C005D4D6F4F6A01E62EFA018491E7FC8081D6
:10133C0081110DC02F5F3F4F032E000C440B295819
:10134C003D4D4F4FF901849147FD808124C0CD90D4
:10135C00DD90EC901297F6014491E7FC40818413E8
:10136C0015C02F5F3F4F032E000C440B29583D4DE9
:10137C004F4FF901949147FD90815FEFC51AD50A43
:10138C00E50ACD92DD92EC92129701C09F5F9B30E3
:0E139C0008F4BBCF892FEF90DF90CF9008951B
:1013AA006F927F928F92CF92DF92EF920F931F9359
:1013BA00CF93DF938C016A01E62EE9013A01862E6A
:1013CA00620E731E811C37FD8A94C614D704E80482
:1013DA0071F0F6018491E7FC8081B801082E000CB7
:1013EA00990BA1D38FEFC81AD80AE80AEECFCE011B
:1013FA00DF91CF911F910F91EF90DF90CF908F9057
:06140A007F906F90089531
:10141000ADE0B0E0EDE0FAE0FDC99A8789877C8312
:101420006B83FA01DB011296CD90DC901397149632
:101430008D919C9115979E838D83ED90FC901197D3
:10144000FA82E98216960D90BC91A02DB887AF83E1
:1014500020803180428053806480758086809780B0
:101460008101B42DF52DE62D7B868C869D8691011C
:10147000A201B301C401A0E048D144F4A2D3890180
:10148000B42FF52FE62F7B878C879D87D7FC04C070
:10149000E894E1F8FA82E9829101A201B301C40162
:1014A000A0E0ED80FE8031D11CF0898182FF04C074
:1014B00081E0E81AF10805C083FF03C091E0E91A52
:1014C000F108CE0101965C018AE0C82ED12C2B2FA9
:1014D0003F2F4E2F5B856C857D858B819C8181D3D1
:1014E000FC019101A201B301C401A0E00ED11CF0E6
:1014F000898182FF11C031970F8118850E0F1F1F40
:101500009101A201B301C401A0E0FFD014F08BE26D
:1015100001C08DE2D80108C083FF07C03197AF81B9
:10152000B885AE0FBF1F80E28C93E980FA80AB8153
:10153000BC8118962D913C911997215031092E1B91
:101540003F0B8F819885E80FF91FAF0160E80D818F
:101550001E8189859A85E7D39C01A985BA858D91DD
:101560009C9190FF07C0EB81FC818281938182175F
:0C15700093070CF4C9012D96E2E131C98B
:10157C00A2E0B0E0E3ECFAE047C93C014B01FA0110
:10158C00DB0112962D913C91139714964D905C9023
:10159C0015978D919C9111979A83898316962D900E
:1015AC003C90179737FD03C08D7F9A838983008108
:1015BC001181228133814481558166817781FE01BD
:1015CC0031965F018AE0C82ED12C7201C40103D37D
:1015DC00E980FA80D40118962D913C9119972150ED
:1015EC003109281B390B820D931DAC0160E8820177
:1015FC00C30193D39C01F3018081918190FF08C0BA
:10160C00D40112968D919C911397821793070CF429
:08161C00C9012296E2E1DDC8DC
:10162400A2E0B0E0E7E1FBE0F3C81C014B01FA01E2
:10163400DB0112962D913C91139714964D905C907A
:1016440015978D919C9111979A83898316966D9025
:101654007C90179737FD03C08D7F9A83898300811F
:101664001181228133814481558166817781FE0114
:1016740031965F0188E0C82ED12C7201C401AFD22B
:10168400298124FF06C00197F301E80FF91F20E325
:101694002083298123FF06C00197F301E80FF91F76
:1016A40020E22083E980FA80D40118962D913C91A0
:1016B400199721503109281B390B860D971DAC0150
:1016C40060E88201C1012DD39C01F10180819181E7
:1016D40090FF08C0D40112968D919C9113978217A4
:0C16E40093070CF4C9012296E2E177C8DC
:1016F000992777FD05C005900D920197E1F70895B0
:0A17000001900D920197E1F70895A2
:10170A000024A7FD00942A173005400550056005FE
:08171A0070058005900508959B
:10172200A4E1B0E0E6E9FBE074C898878F837A838E
:1017320069835C8B4B8B122FDB011296ED91FC912E
:10174200139714962D913C9115973E832D83ED901E
:10175200FC90119716962D903C901797F7FD03C0B9
:10176200E894E1F802C0E1E0F0E0C7018071992756
:101772009A878987E4FE1EC0AB89BC892C91119699
:101782003C91119712964C91129713965C91139774
:1017920014966C91149715967C91159716968C91C8
:1017A200169717969C91A0E0AFDF21F08D819E8164
:1017B200029702C08D819E819701287033273C8752
:1017C2002B87E3FC0197AB89BC894C9011965C9006
:1017D200119712966C90129713967C901397149609
:1017E2008C90149715969C9015971696AC90169718
:1017F2001796BC90A981BA811896CD90DC90199762
:10180200B1E0CB1AD108D101AC0DBD1D1C929C8355
:101812008B839F01281B390B3E872D87C70182705E
:101822009927988B8F87812F012E000C990BDC0151
:10183200A154B109BA8BA98B32E0C316D10434F496
:1018420089859A85892B09F049C06FC09201A3014D
:10185200B401C501A0E058DF71F1B1E0CB1AD108A3
:10186200C2018F7099278A30910514F4C09602C084
:10187200895A9F4FE989FA897A9740F49C0120623C
:10188200215631092A31310508F4CED2F101EC0D8D
:10189200FD1D80832B813C81215031093C832B83A8
:1018A2009201A301B401C50104E0C9D229013A01A0
:1018B2004B015C01C1CF8D859E85AB81BC818A0FB6
:1018C2009B1F181619064CF21A161B060CF0B8CFFD
:1018D200EF85F889EF2B09F0C0CFB2CFAB89BC8975
:1018E2002C9111963C91119712964C911297139646
:1018F2005C91139714966C91149715967C91159799
:1019020016968C91169717969C91A0E0FDDE69F0D1
:10191200F101EC0DFD1D31971083B2E0CB1AD10815
:10192200F101EC0DFD1D80E38083EB85FC85EF2B3F
:1019320041F0F1E0CF1AD108F101EC0DFD1D80E27A
:101942008083A981BA8118962D913C9119972150D3
:1019520031092C193D09C20CD31CA60160E80D8186
:101962001E818F819885DED19C01EF81F88580816F
:10197200918190FF09C0A981BA8112968D919C91A3
:101982001397821793070CF4C9016496E2E10C9451
:02199200EF0361
:10199400CF93DF93DC01F90164387105D9F164F464
:1019A4006138710521F16238710509F440C060386D
:1019B400710509F054C02EC060397105C1F184F479
:1019C4006838710509F04BC0C081D181CE010296FF
:1019D40091838083E881F981ED93FC9340833CC03B
:1019E400603A7105B9F0603C7105A1F038C0C0815E
:1019F400D181CE01029691838083E881F981ED93B0
:101A0400FC93052E000C660B770B40835183628395
:101A1400738322C0C081D181CE01029691838083D9
:101A2400E881F981ED93FC935183408315C0C08113
:101A3400D181CE01029691838083E881F981ED936F
:101A4400FC9351834083852F880F880B8283838383
:101A5400848385838683878381E090E002C080E06D
:081A640090E0DF91CF9108959D
:101A6C002F923F924F926F927F928F92AF92BF9232
:101A7C00CF92DF92EF92FF920F931F93CF93DF934E
:101A8C00CDB7DEB727970FB6F894DEBF0FBECDBF2C
:101A9C006C017B013901842E98018AE6282E82E2A2
:101AAC00382E80E0482E87E0F101AE014F5F5F4F8A
:101ABC00DA01742D17DEF70102811381A480B58041
:101ACC00E080F18061147104810419F43A01F0E8AA
:101ADC008F2E2115310521F4882DB301C7D19C011E
:101AEC0017FD04C00217130708F498018501682D2F
:101AFC00A301C60112D127960FB6F894DEBF0FBE14
:101B0C00CDBFDF91CF911F910F91FF90EF90DF90A0
:101B1C00CF90BF90AF908F907F906F904F903F90F1
:041B2C002F90089559
:101B30000F931F93CF93DF93DB012D913C9111976E
:101B400030FF25C017964D915C91189715962D91F1
:101B50003C9116974217530778F41296ED91FC9139
:101B60001397808312962D913C9113972F5F3F4FCF
:101B700013963C932E93129717962D913C9118979C
:101B80002F5F3F4F18963C932E93179715C01D96C5
:101B9000ED91FC911E97309719F48FEF9FEF0CC0D9
:101BA0008B01EC010995892BC1F7F801878190859C
:101BB000019690878783CE01DF91CF911F910F917E
:021BC000089586
:101BC20060957095809590953095409550952195AA
:101BD2003F4F4F4F5F4F6F4F7F4F8F4F9F4F089534
:101BE200A2E1B0E0E7EFFDE00C940A04FC010A8BED
:101BF2001B832C83732E642E552E462E7D83CC861A
:101C0200D886BF82AE82868197819B878A87D501DB
:101C12004D915C91228133818085918501971C01D0
:101C220037FF02C021E030E0EA85FB85E80FF91FAB
:101C320010824701E1E0F0E0FA83E983C9018E19DD
:101C42009F099E878D87DA01A270BB27B88BAF8769
:101C5200B885BB0FBB0BB98B1214130474F0A981A6
:101C6200BA81AB2B09F059C0AE81BF818D919C9195
:101C720011978F7E8D939C9350C02A893B814C8112
:101C8200572D662D752D842D9D81A0E03DDDA1F19E
:101C9200E1E02E1A3108FC85F987AF2EB884C98895
:101CA200DC2CEC2CFC2C0C2D1C2D2A893B814C812C
:101CB200572D662D752D842D9D81F3D0C901298361
:101CC2009A83EA85FB85E20DF31D805D808381E0C6
:101CD200881A91082A893B814C81572D662D752DD2
:101CE200842D9D81E0D02A8B3B834C83752E662EFA
:101CF200572E482E9D83B0CF8D859E85880D991DC8
:101D0200181619062CF2181419040CF0A8CFEF8536
:101D1200F889EF2B09F0BCCFA2CFC1016296E2E1B4
:041D22000C94EF032B
:101D26002F923F924F926F927F928F92AF92BF9275
:101D3600CF92DF92EF92FF920F931F93CF93DF9391
:101D4600CDB7DEB766970FB6F894DEBF0FBECDBF30
:101D56005C013A01862E6901C701817099279C8B27
:101D66008B8BE0FC1CC020173107CCF47801EC18F3
:101D7600FD08FE8AED8AA70191E1E916F10410F04B
:101D860040E150E060E270E0CE0101969A8B898BCB
:101D960093D089899A891C0120E8422E0AC09601AF
:101DA600682DA301C501FEDAC016D106FCF2C601F4
:101DB60022C090E1E916F10450F020E130E0642DF4
:101DC600A101C501EFDA80E1E81AF108F2CF2D8909
:101DD6003E892F70332789899A89AC0160E8C5014D
:101DE600E1DA8B899C89892B29F49601682DA30158
:101DF600C501D8DAC80166960FB6F894DEBF0FBEE5
:101E0600CDBFDF91CF911F910F91FF90EF90DF90A3
:101E1600CF90BF90AF908F907F906F904F903F90F4
:041E26002F9008955C
:101E2A009C01215631092A31310510F48F75992701
:021E3A00089509
:101E3C0097FB10F8169400080F93083098F0085090
:101E4C00232F342F452F562F672F782F892F902D26
:101E5C00F4CF059497958795779567955795479502
:0C1E6C00379527950A95AAF70F91089565
:101E7800CF92DF92EF926B01E82EA82FCB01FC01E5
:101E88002491A7FD2081222319F00196A11DF7CFE7
:0C1E98008C199D09EF90DF90CF90089509
:101EA400689401C0E8948F929F92CF93DF930ED0F1
:0A1EB400DF91CF919F908F90089569
:101EBE00FC01480F591FE417F50711F06193FBCF92
:021ECE00089575
:101ED00088249924F401E401B0E49F93AA279A1579
:101EE0008B049C04ED05FE05CF05D007A10798F4EF
:101EF000AD2FDC2FCF2FFE2FE92D982C892E982F78
:101F0000872F762F652F542F432F322F2227B8503B
:101F100031F7BF9127C01B2EBF91BB27220F331F64
:101F2000441F551F661F771F881F991F881C991C07
:101F3000EE1FFF1FCC1FDD1FAA1FBB1F8A149B04AF
:101F4000EC05FD05CE05DF05A007B10748F08A18AE
:101F50009B08EC09FD09CE09DF09A00BB10B21603C
:101F60001A94E1F62EF49401AF01BE01CD01000CEC
:021F70000895D2
:041F72000C940000CB
:101F76005345545F544D3D003E3E204F4B3A20544E
:101F8600617361206465206D7565737472656F2079
:101F960061637475616C697A6164612E0D0A003E35
:101FA6003E204552524F523A204C61207461736173
:101FB600206465626520657374617220656E747253
:101FC600652032207920363020736567756E646F20
:101FD600732E0D0A005345545F54494D453D003E4E
:101FE6003E204F4B3A2052656C6F6A2061637475D0
:101FF600616C697A61646F2E0D0A003E3E2045527F
:10200600524F523A20466F726D61746F206465209C
:10201600686F726120696E76616C69646F2E0D0A55
:10202600003E3E204552524F523A20436F6D616E3C
:10203600646F206E6F207265636F6E6F6369646F85
:042046002E0D0A0051
:10204A0053697374656D6120496E69636961646F70
:10205A002E204573706572616E646F20636F6D61C7
:0A206A006E646F732E2E2E0D0A0017
:10207400646975726E6F006E6F637475726E6F0053
:10208400414C45525441004E4F524D414C005B412E
:102094004C455254415D205B253032753A2530322F
:1020A400753A253032755D2054656D7065726174C2
:1020B4007572612066756572612064652072616E57
:1020C400676F202573212056616C6F723A20257545
:1020D40020430D0A005B414C455254415D205B2571
:1020E4003032753A253032753A253032755D2048E4
:1020F400756D656461642066756572612064652030
:1021040072616E676F202573212056616C6F723A7D
:102114002025752025250D0A005B253032753A25CA
:102124003032753A253032755D20543A20257520B9
:102134004320483A202575202525207C20457374AA
:1021440061646F3A2025730D0A005B253032753ABD
:10215400253032753A253032755D20543A202D2DC4
:10216400204320483A202D2D202525207C2045730E
:102174007461646F3A204552524F5220444854319E
:04218400310D0A000F
:0C2188008F9381E080932C018F911895BB
:102194001F921FB61F9211248F939F93EF93FF9367
:1021A4008091C6008830E1F08F37D1F08D3011F185
:1021B4008A3001F19091AF019F3150F4E091AF0169
:1021C40091E09E0F9093AF01F0E0E050FF4F8083C9
:1021D400FF91EF919F918F911F901FBE1F901895B3
:1021E4008091AF018823A1F38091AF018150809346
:1021F400AF01EECF8091AF01882351F3E091AF019D
:10220400F0E0E050FF4F10821092AF0181E0809324
:04221400B001DECF68
:102218008F938FB78F939F93EF93FF9390912E0196
:1022280080912D019817B9F0E0912D01F0E0E15D62
:10223800FE4F80818093C60080912D0190E0019629
:102248008F77992780932D01FF91EF919F918F911F
:102258008FBF8F9118958091C1008F7D8093C100A9
:02226800F3CFB2
:07226A00286E756C6C290061
:06227100286E696C2900D3
:1022770068076C094C836A9074A07AC000806888EC
:0622870000846C8200815E
:01228D00FF51
:01228E00024D
:00000001FF
