:100000000C9437000C9410010C9410010C94100106
:100010000C9410010C9410010C9410010C9410011C
:100020000C9410010C9410010C9410010C94C0005D
:100030000C9410010C9410010C9410010C941001FC
:100040000C9410010C9410010C9410010C941001EC
:100050000C9410010C9410010C9410010C941001DC
:100060000C9410010C941001010001078000112470
:100070001FBECFEFD8E0DEBFCDBFE8E6F0E040E046
:1000800017C0B591A59135912591059107FD0CC03B
:1000900095918591EF01F92FE82F05900D92A21708
:1000A000B307D9F7FE0104C01D92A217B307E1F709
:1000B000ED36F40731F70E9401010C945F00F894CB
:0200C000FFCF70
:1000C20080910601813009F048C0109206010E9419
:1000D200F90080ED0E94DB0080E00E94DB000E94BC
:1000E200F90081ED0E94DB000E94EF008093020183
:1000F2000E94EF00809301010E94E50080930001BD
:100102000E940C0180910201982F92959F70990F85
:10011200292F220F220F920F8F70890F80930501D2
:1001220080910101982F92959F70990F292F220F8C
:10013200220F920F8F70890F80930401809100012A
:10014200982F92959F709370990F292F220F220F4B
:0C015200920F8F70890F809303010895B5
:10015E00E1E8F0E080818C60808383E294EF9093FD
:10016E00890080938800EFE6F0E0808182608083D2
:02017E000895E2
:100180001F920F920FB60F9211248F9381E08093EC
:0E01900006018F910F900FBE0F901F901895D3
:10019E00E9EBF0E080818C7F808388E48093B80067
:0801AE0084E08093BC00089579
:1001B6008093BB0084E88093BC008091BC008823B8
:0401C600E4F70895BD
:1001CA0084E88093BC008091BC008823E4F7809186
:0401DA00BB000895C9
:1001DE0084EC8093BC008091BC008823E4F780916E
:0401EE00BB000895B5
:1001F20084EA8093BC008091BC008823E4F70895D0
:0C0202000E94070178940E946100FDCF6B
:0A020E000E94CF000E94AF00089587
:0802180084E98093BC00089505
:040220000C9400003A
:00000001FF
