:100000000C9437000C94FD010C94FD010C94FD013F
:100010000C94FD010C94FD010C94FD010C94FD0168
:100020000C94FD010C94FD010C94FD010C949E01B7
:100030000C94FD010C94FD010C94FD010C94FD0148
:100040000C94FD010C94FD010C9403010C943701F8
:100050000C94FD010C94FD010C94FD010C94FD0128
:100060000C94FD010C94FD01010001AB80001124F2
:100070001FBECFEFD8E0DEBFCDBFE8E6F0E040E046
:1000800017C0B591A59135912591059107FD0CC03B
:1000900095918591EF01F92FE82F05900D92A21708
:1000A000B307D9F7FE0104C01D92A217B307E1F709
:1000B000ED36F40731F70E946B010C94B901F89406
:0200C000FFCF70
:1000C20053697374656D6120496E69636961646F18
:1000D2002E204573706572616E646F20636F6D616F
:1000E2006E646F732E2E2E0D0A00436F6D616E6467
:1000F2006F20726563696269646F3A20000D0A00BD
:100102008091A601813009F048C01092A6010E9498
:10011200EC0180ED0E94C40180E00E94C4010E94B3
:10012200EC0181ED0E94C4010E94D8018093A201DA
:100132000E94D8018093A1010E94CE018093A00168
:100142000E94F9018091A201982F92959F70990FB8
:10015200292F220F220F920F8F70890F8093A501F2
:100162008091A101982F92959F70990F292F220FAC
:10017200220F920F8F70890F8093A4018091A001AA
:10018200982F92959F709370990F292F220F220F0B
:0C019200920F8F70890F8093A3010895D5
:10019E00CF92DF92EF926B01E82E20E019C0809192
:1001AE00A80190E001968F779078992324F4019717
:1001BE0080689F6F01969091A7018917E1F3E091F6
:1001CE00A801F0E0E05EFE4F30838093A8012F5F20
:1001DE00AE2DC601820F911DA11DFC013491A7FD0C
:1001EE0030813111DCCFE1ECF0E0808180628083E0
:0801FE00EF90DF90CF9008950F
:100206001F920F920FB60F9211248F939F93EF9325
:10021600FF938091C6008D3089F08A3079F09091F5
:10022600A9019F31C0F4E091A90191E09E0F90933E
:10023600A901F0E0E050FF4F80830DC08D3059F4E6
:10024600E091A901F0E0E050FF4F10821092A90161
:1002560081E08093AA01FF91EF919F918F910F907A
:080266000FBE0F901F901895C8
:10026E001F920F920FB60F9211248F939F93EF93BD
:10027E00FF939091A8018091A7019817B9F0E09192
:10028E00A701F0E0E05EFE4F80818093C600809172
:10029E00A70190E001968F779078992324F4019727
:1002AE0080689F6F01968093A70105C0E1ECF0E096
:1002BE0080818F7D8083FF91EF919F918F910F9021
:0802CE000FBE0F901F90189560
:1002D6000E94F4010E94E201789462EC70E080E0F2
:1002E6000E94CF000E9481008091AA018130D1F73F
:1002F6006CEE70E080E00E94CF0060E071E080E884
:100306000E94CF006FEF70E080E00E94CF00109255
:04031600AA01E8CF81
:10031A00E1E8F0E080818C60808383E294EF90933F
:10032A00890080938800EFE6F0E080818260808314
:02033A00089524
:10033C001F920F920FB60F9211248F9381E080932E
:0E034C00A6018F910F900FBE0F901F90189575
:10035A00E9EBF0E080818C7F808388E48093B800A9
:08036A0084E08093BC000895BB
:10037200EC010E9402020E940102CE010E940302CD
:06038200CE010E94FF0104
:100388008093BB0084E88093BC008091BC008823E4
:04039800E4F70895E9
:10039C0084E88093BC008091BC008823E4F78091B2
:0403AC00BB000895F5
:1003B00084EC8093BC008091BC008823E4F780919A
:0403C000BB000895E1
:1003C40087E68093C40088E98093C10086E0809327
:0403D400C2000895C6
:1003D80084EA8093BC008091BC008823E4F70895E8
:0A03E8000E94AD010E948D010895EE
:0803F20084E98093BC0008952A
:0403FA000C9400005F
:0403FE000E945F00FA
:0204020008955B
:02040400089559
:02040600089557
:00000001FF
