:100000000C9437000C94CC000C94CC000C94CC00D5
:100010000C94CC000C94CC000C94CC000C94CC0030
:100020000C94CC000C94CC000C94CC000C9491005B
:100030000C94CC000C94CC000C94CC000C94CC0010
:100040000C94CC000C94CC000C94CC000C94CC0000
:100050000C94CC000C94CC000C94CC000C94CC00F0
:100060000C94CC000C94CC00010001018000112400
:100070001FBECFEFD8E0DEBFCDBFE8E6F0E040E046
:1000800017C0B591A59135912591059107FD0CC03B
:1000900095918591EF01F92FE82F05900D92A21708
:1000A000B307D9F7FE0104C01D92A217B307E1F709
:1000B000ED36F40731F70E9461000C945F00F8946C
:0200C000FFCF70
:1000C2000E94A0000E9480007894809100018130FB
:1000D200E1F7109200010E94C00080ED0E94AC0086
:1000E20080E00E94AC000E94C00081ED0E94AC0042
:0E00F20081E090E00E94B6000E94C800E6CFB8
:10010000E1E8F0E080818C60808383E294EF90935B
:10011000890080938800EFE6F0E080818260808330
:02012000089540
:100122001F920F920FB60F9211248F9381E080934A
:0E01320000018F910F900FBE0F901F90189537
:10014000E9EBF0E080818C7F808388E48093B800C5
:0801500084E08093BC000895D7
:100158008093BB0084E88093BC008091BC00882316
:04016800E4F708951B
:10016C0084E88093BC008091BC008823E4F78091E4
:04017C00BB00089527
:1001800084EA8093BC008091BC008823E4F7089542
:0801900084E98093BC0008958E
:040198000C940000C3
:00000001FF
