:100000000C9437000C94EF000C94EF000C94EF006C
:100010000C94EF000C94EF000C94EF000C94EF00A4
:100020000C94EF000C94EF000C94EF000C94D500AE
:100030000C94EF000C94EF000C94EF000C94EF0084
:100040000C94EF000C94EF000C94EF000C94EF0074
:100050000C94EF000C94EF000C94EF000C94EF0064
:100060000C94EF000C94EF000100010180001124BA
:100070001FBECFEFD8E0DEBFCDBFE8E6F0E040E046
:1000800017C0B591A59135912591059107FD0CC03B
:1000900095918591EF01F92FE82F05900D92A21708
:1000A000B307D9F7FE0104C01D92A217B307E1F709
:1000B000ED36F40731F70E9461000C94E400F894E7
:0200C000FFCF70
:1000C2008AB180618AB978942FE38DE093E0215060
:1000D20080409040E1F700C000000E94AB000E9407
:1000E200C100813089F70E949200082F0E9492007D
:1000F200C82F0E949200182F0E949200D82F0E94AF
:1001020092002C2F30E0200F311D210F311D2D0FB9
:10011200311D90E028173907B9F28BB180618BB994
:02012200D3CF39
:1001240020E030E080E011C0309BFECF9AE09A9549
:10013400F1F7309B07C090E0880F991F81603099D8
:10014400FECF01C0880F2F5F3F4F2830310564F385
:0201540008950C
:1001560087B1816087B988B18E7F88B983E991E1DB
:100166000197F1F700C0000088B1816088B99AE074
:0C0176009A95F1F787B18E7F87B9089544
:100182008DE08A95F1F7000030990CC08AE18A95DA
:10019200F1F700C0309902C080E001C081E03099DF
:0801A200FECF089580E00895EE
:1001AA001F920F920FB60F9211248F9381E08093C2
:0E01BA0000018F910F900FBE0F901F901895AF
:1001C800EC010E94F4000E94F300CE010E94F500A9
:0601D800CE010E94F100BF
:0401DE000C9400007D
:0401E2000E945F0018
:0201E60008957A
:0201E800089578
:0201EA00089576
:00000001FF
