:100000000C943D000C945E0B0C945E0B0C945E0BF8
:100010000C945E0B0C945E0B0C945E0B0C945E0BBC
:100020000C945E0B0C945E0B0C945E0B0C94ED0A1E
:100030000C945E0B0C945E0B0C945E0B0C945E0B9C
:100040000C945E0B0C945E0B0C9407080C94F40853
:100050000C945E0B0C945E0B0C945E0B0C945E0B7C
:100060000C945E0B0C945E0B010001A58001A501B0
:10007000A60016C001A601B3800011241FBECFEF59
:10008000D8E0DEBFCDBFE8E6F0E040E017C0B591B4
:10009000A59135912591059107FD0CC0959185910C
:1000A000EF01F92FE82F05900D92A217B307D9F7AA
:1000B000FE0104C01D92A217B307E1F7E937F40768
:0E00C00031F70E949A0A0C946500F894FFCF65
:1000CE00646975726E6F006E6F637475726E6F0019
:1000DE00414C45525441004E4F524D414C005B2D08
:1000EE002D3A2D2D3A2D2D5D20543A202575204385
:1000FE0020483A202575202525207C2045737461E3
:10010E00646F3A204552524F52205254430D0A000A
:10011E005B414C455254415D205B253032753A258A
:10012E003032753A253032755D2054656D706572CA
:10013E0061747572612066756572612064652072E6
:10014E00616E676F202573212056616C6F723A20A5
:10015E00257520430D0A005B414C455254415D20EC
:10016E005B253032753A253032753A253032755D61
:10017E002048756D656461642066756572612064E2
:10018E00652072616E676F202573212056616C6F3A
:10019E00723A2025752025250D0A005B2530327513
:1001AE003A253032753A253032755D20543A202585
:1001BE0075204320483A202575202525207C204592
:1001CE00737461646F3A2025730D0A005B2D2D3A0E
:1001DE002D2D3A2D2D5D20543A202D2D20432048D3
:1001EE003A202D2D202525207C2045737461646FC7
:1001FE003A2046414C4C412047454E4552414C0D0C
:10020E000A005B253032753A253032753A25303288
:10021E00755D20543A202D2D204320483A202D2D57
:10022E00202525207C2045737461646F3A20455249
:0C023E00524F522044485431310D0A0048
:10024A005345545F544D3D003E3E204F4B3A205497
:10025A00617361206465206D7565737472656F20C2
:10026A0061637475616C697A6164612E0D0A003E7E
:10027A003E204552524F523A204C612074617361BC
:10028A00206465626520657374617220656E74729C
:10029A00652032207920363020736567756E646F69
:1002AA00732E0D0A005345545F54494D453D003E97
:1002BA003E204F4B3A2052656C6F6A206163747519
:1002CA00616C697A61646F2E0D0A003E3E204552C8
:1002DA00524F523A20466F726D61746F20646520E6
:1002EA00686F726120696E76616C69646F2E0D0A9F
:1002FA00003E3E204552524F523A20436F6D616E86
:10030A00646F206E6F207265636F6E6F6369646FCE
:04031A002E0D0A009A
:10031E0053697374656D6120496E69636961646FB9
:10032E002E204573706572616E646F20636F6D6110
:0A033E006E646F732E2E2E0D0A0060
:100348002F923F924F926F927F928F929F92AF928D
:10035800BF92CF92DF92EF92FF920F931F93CF93AA
:10036800DF93CDB7DEB762970FB6F894DEBF0FBE46
:10037800CDBF6C013A01862E7901FC0110861782E7
:10038800848181FFE7C19E012F5F3F4F3D872C8706
:10039800C901A0E8888B998BAA8B9FE3992EF3015A
:1003A800849187FC8081882309F4D0C1482D93016A
:1003B8002F5F3F4F4F4F853219F03901842E0AC005
:1003C800F901849147FD808192E0690E711C811CBE
:1003D800853229F4B60190E00E944F08E0CFB12C95
:1003E80000E010E01032A0F48B3269F030F4803273
:1003F80059F0833269F410612CC08D3239F08033A2
:1004080039F4116026C01260146023C0186021C03E
:1004180017FD29C090ED980F9A3078F416FF06C0A2
:10042800AAE0BA9E900D1124B92E13C0EAE00E9FDF
:10043800900D1124092F10620CC08E3221F416FD84
:1004480085C1106406C08C3611F4106802C0883665
:1004580051F4F301849187FC8081FFEF6F1A7F0AC2
:100468008F0A8111BFCF982F9F7D9554933028F420
:1004780024E0E20EF11C99820FC0833631F08337F5
:1004880091F0833509F063C027C0F7018081898323
:1004980097012E5F3F4F7901288839884A88AA2416
:1004A800A394B12C17C0A7014D5F5F4F5F874E879C
:1004B800F70120803180428016FF03C04B2D50E0A9
:1004C80002C04FEF5FEF842DB1010E94320A5C0138
:1004D800EE84FF841F7718C097012D5F3F4F3F8739
:1004E8002E87F70120803180428016FF03C04B2DF4
:1004F80050E002C04FEF5FEF842DB1010E94320A35
:100508005C011068EE84FF8413FD1DC0802F90E00D
:10051800A816B906C0F4B60180E290E00E944F0820
:100528000150F4CFF101849147FC8081FFEF2F1A2D
:100538003F0A4F0AB60190E00E944F08011101508E
:1005480021E0A21AB108A114B10461F7F5C08436FC
:1005580011F0893671F5F70117FF08C060817181C4
:100568008281938197012C5F3F4F09C0608171811F
:10057800072E000C880B990B97012E5F3F4F7901CE
:100588001F76312E97FF0AC09095809570956195DA
:100598007F4F8F4F9F4F312F3068332E2AE030E046
:1005A800AE014F5F5F4F0E945007482E4C85441A9A
:1005B8004AC0853729F41F7EA12E2AE030E025C0E5
:1005C800512F597FA52E8F36C1F018F4883579F050
:1005D800BDC0803719F0883721F0B8C0852F8061F9
:1005E800A82EA4FE0DC09A2D9460A92E09C014FF50
:1005F8000AC0A52FA660AA2E06C028E030E005C0D4
:1006080020E130E002C020E132E0F701A7FE08C097
:100618006081718182819381A7014C5F5F4F07C020
:100628006081718180E090E0A7014E5F5F4F7A01A1
:10063800AE014F5F5F4F0E945007482E5C85451AF8
:100648008A2D8F77382E36FE0DC0932D9E7FA92ECA
:100658004B1458F434FE0BC032FC09C0A32DAE7EF7
:10066800AA2E05C0142DA32C03C0142D01C01B2DC8
:10067800A4FE0EC0FE01E40DF11D8081803321F43B
:10068800EA2DE97EAE2E08C0A2FE05C01E5F04C09A
:100698008A2D867809F01F5FA3FC11C0A0FE06C052
:1006A800101788F4040DB02EB11A0EC0101760F49C
:1006B800B60180E290E00E944F081F5FF7CF101745
:1006C80018F4011B02C0B42C00E0A4FE10C0B6014F
:1006D80080E390E00E944F08A2FE17C0A1FC03C06F
:1006E80088E790E002C088E590E0B6010CC08A2D4A
:1006F800867859F0A1FE02C08BE201C080E2A7FC17
:100708008DE2B60190E00E944F084B1438F4B60110
:1007180080E390E00E944F08BA94F7CF4A94E1E052
:10072800F0E0EC0FFD1FE40DF11D8081B60190E0B3
:100738000E944F084110F2CF002309F430CEB601D1
:1007480080E290E00E944F080150F6CFF6018781C1
:10075800908502C08FEF9FEF62960FB6F894DEBFC8
:100768000FBECDBFDF91CF911F910F91FF90EF90FA
:10077800DF90CF90BF90AF909F908F907F906F90B9
:080788004F903F902F9008955F
:100790001F93CF93DF93CDB7DEB7CA5CD1090FB6F5
:1007A000F894DEBF0FBECDBF8091AD01813009F05E
:1007B00061C11092AD018091A4018F5F8093A4016B
:1007C0009091A501891708F455C11092A401C65350
:1007D000DF4F1882CA5CD040C753DF4F1882C95C14
:1007E000D040BE0167537F4FCE0186539F4F0E947A
:1007F00028091A821982FE01339692E6DF011D92C2
:100800009A95E9F7882309F4E4C08091A901813021
:1008100011F5C753DF4F8881C95CD0401F928F9379
:10082000C653DF4F8881CA5CD0401F928F938CEEF5
:1008300090E0A0E0AF939F938F93CE018B599F4F91
:100840009F938F930E945B090FB6F894DEBF0FBE93
:10085000CDBF10E0F5C08091AA01873030F08091C3
:10086000AA01833120F080E003C080E001C081E074
:10087000882311F034E101C03FE0882311F04EE1FC
:1008800001C046E1882311F052E301C05CE38823F4
:1008900011F066E401C060E5882321F08EEC90E061
:1008A000A0E003C085ED90E0A0E0C653DF4F2881B3
:1008B000CA5CD040231710F0421720F55091AC01CC
:1008C0004091AB013091AA011F922F93AF939F9358
:1008D0008F931F925F931F924F931F923F938EE1CE
:1008E00091E0A0E0AF939F938F93CE0101969F93E9
:1008F0008F930E945B090FB6F894DEBF0FBECDBF89
:1009000011E02EC0C753DF4F2881C95CD0402517A6
:1009100010F0621720F55091AC014091AB0130917D
:10092000AA011F922F93AF939F938F931F925F9370
:100930001F924F931F923F9385E691E0A0E0AF9303
:100940009F938F93CE0101969F938F930E945B0993
:100950000FB6F894DEBF0FBECDBF11E001C010E0AE
:10096000112321F08EED90E0A0E003C085EE90E031
:10097000A0E04091AC013091AB012091AA01AF936E
:100980009F938F93C753DF4F8881C95CD0401F92DC
:100990008F93C653DF4F8881CA5CD0401F928F93DC
:1009A0001F924F931F923F931F922F9389EA91E0DA
:1009B000A0E0AF939F938F93CE018B599F4F9F934E
:1009C0008F930E945B090FB6F894DEBF0FBECDBFB8
:1009D00037C08091A9018130A1F48AED91E0A0E0B7
:1009E000AF939F938F93CE018B599F4F9F938F937C
:1009F0000E945B090F900F900F900F900F9010E0E6
:100A00001FC02091AC019091AB018091AA011F926F
:100A10002F931F929F931F928F9380E192E0A0E00B
:100A2000AF939F938F93CE018B599F4F9F938F933B
:100A30000E945B090FB6F894DEBF0FBECDBF10E079
:100A4000BE016B597F4F80E80E94C008112381F0DE
:100A50008091A3018F5F8093A301823058F0BE0183
:100A60006F5F7F4F80E80E94C0081092A30102C010
:100A70001092A301C653DF4F0FB6F894DEBF0FBE2E
:0A0A8000CDBFDF91CF911F910895C3
:100A8A002F923F924F925F926F927F928F92AF9284
:100A9A00BF92CF92DF92EF920F931F93CF93DF9380
:100AAA0000D000D000D0CDB7DEB73B01882E5A0166
:100ABA0019014115510521F0FA016083718382837E
:100ACA002114310429F0C1010297839708F01AC151
:100ADA00E82C6301FFEFCF1ADF0AEF0AF301149142
:100AEA0087FC1081812F90E00E943E0B4C2D3D2DFA
:100AFA002E2D892B19F036018E2CEACF1D3269F47E
:100B0A00E82C630152E0C50ED11CE11CE42FF32F3F
:100B1A00149127FD108101E00EC01B3259F4E82C14
:100B2A00630182E0C80ED11CE11CE42FF32F14915B
:100B3A0027FD108100E02114310409F190E1291602
:100B4A00310429F43FC010E32114310421F1F8E003
:100B5A002F16310401F154F432E02316310421F541
:100B6A00412C512C612C50E4752E4BC04AE02416BE
:100B7A00310439F050E125163104B1F43DC0103387
:100B8A0019F13AE0232E312C4CEC442E542C642CCF
:100B9A004CE0742E36C098E0292E312C412C512C71
:100BAA00612C20E1722E2DC060E070E080E090E8B8
:100BBA009101032C000C440B550B0E947E0929015C
:100BCA003A011FC01033C1F4F6018491E7FC808119
:100BDA008F7D883509F0B7CFAE2DC6010196A11DCC
:100BEA00FC011491A7FD1081E2E0CE0ED11CE11C9C
:100BFA00026060E1262E312C412C512C612C88E0B8
:100C0A00782EA0E060E070E0CB019101032C000C8B
:100C1A00440B550B29833A834B835C83E0EDE10F48
:100C2A00EA3060F02FEB210F2A3110F4E9EC05C00D
:100C3A002FE9210F2A3150F5E9EAE10F2E2F30E092
:100C4A00221533051CF5A7FD18C046165706680677
:100C5A00790680F029813A814B815C810E94FE0AE3
:100C6A006E0F711D811D911D61307105810530E87E
:100C7A00930710F0AFEF01C0A1E0F6011491E7FC71
:100C8A0010814FEFC41AD40AE40AC8CF202F21706A
:100C9A00A114B104B1F0AA2349F051E0C51AD10850
:100CAA00E108F501C082D182E2820BC001FF1DC0BA
:100CBA00F2E0CF1AD108E108F501C082D182E282BE
:100CCA0014C0A7FF12C0222329F060E070E080E080
:100CDA0090E804C06FEF7FEF8FEF9FE722E230E0EA
:100CEA00309321012093200109C0222381F090959D
:100CFA008095709561957F4F8F4F9F4F462F372F65
:100D0A00282F12C040E030E020E090E00DC097FFAD
:100D1A00F5CF82E290E090932101809320016FEF5A
:100D2A007FEF8FEF9FE7EACF642F732F822F2696EC
:100D3A000FB6F894DEBF0FBECDBFDF91CF911F91E2
:100D4A000F91EF90DF90CF90BF90AF908F907F90F0
:0C0D5A006F905F904F903F902F90089595
:100D6600CF92DF92EF920F931F93CF93DF93EC0115
:100D76006C0180E8E82E07E010E02AE432E040E06B
:100D86008E2DB6010E948B08892BC9F42796BE01C9
:100D960080E80E94570B9C01225031092B33310504
:100DA60040F48093A50162E572E080E00E94C008ED
:100DB6006CC069E772E080E00E94C00866C009E086
:100DC60010E02FEA32E040E08E2DB6010E948B083B
:100DD600892B09F055C0898590E0C097880F982F18
:100DE600990F990F890F9A85890F80532C8530E0CA
:100DF60020533109220F922F990F990F290F9D85A4
:100E0600290F10ED120F2F8530E020533109220FE4
:100E1600922F990F990F290F9889290FC0EDC20FAC
:100E2600883140F51C3330F5CC3320F50E94C90AD1
:100E3600D82F812F0E94C90A182F8C2F0E94C90A09
:100E4600C82F0E94170A80ED0E94A00980E00E9428
:100E5600A0098C2F0E94A009812F0E94A0098D2F26
:100E66000E94A0090E94530B69EB72E080E00E9489
:100E7600C0080BC065ED72E080E00E94C00805C0A6
:100E86006BEF72E080E00E94C008DF91CF911F9166
:0A0E96000F91EF90DF90CF900895C8
:100EA000FA01AA27283051F1203181F1E8946F939B
:100EB0006E7F6E5F7F4F8F4F9F4FAF4FB1E03ED041
:100EC000B4E03CD0670F781F891F9A1FA11D680FDF
:100ED000791F8A1F911DA11D6A0F711D811D911D12
:100EE000A11D20D009F468943F912AE0269F112487
:100EF0003019305D3193DEF6CF010895462F4770EB
:100F0000405D4193B3E00FD0C9F7F6CF462F4F7045
:100F1000405D4A3318F0495D31FD4052419302D0A3
:100F2000A9F7EACFB4E0A695979587957795679549
:100F3000BA95C9F700976105710508959B01AC0149
:100F40000A2E06945795479537952795BA95C9F770
:0C0F5000620F731F841F951FA01D0895E1
:100F5C008091AE01813009F053C01092AE01109215
:100F6C00A2010E94170A80ED0E94A00980E00E9455
:100F7C00A0090E94170A81ED0E94A0090E94DD09B8
:100F8C008093A8010E94DD098093A7010E94BF09EC
:100F9C008093A6010E94530B8091A201813019F419
:100FAC008093A90108951092A9018091A801982F0E
:100FBC0092959F70990F292F220F220F920F8F70ED
:100FCC00890F8093AC018091A701982F92959F7007
:100FDC00990F292F220F220F920F8F70890F809358
:100FEC00AB018091A601982F92959F709370990FE9
:100FFC00292F220F220F920F8F70890F8093AA0135
:02100C00089545
:10100E001F920F920FB60F9211248F939F93EF930F
:10101E00FF938091C600883011F08F3751F4809184
:10102E00B101882361F18091B10181508093B101AA
:10103E0026C08D3089F08A3079F09091B1019F31C0
:10104E00F0F4E091B10191E09E0F9093B101F0E0C8
:10105E00E050FF4F808313C08D3011F08A3079F449
:10106E008091B101882359F0E091B101F0E0E05098
:10107E00FF4F10821092B10181E08093B201FF9177
:10108E00EF919F918F910F900FBE0F901F9018951B
:10109E000F931F93CF93DF93FB01248121FD03C098
:1010AE008FEF9FEF2CC022FF16C047815085258100
:1010BE0036814217530744F4A081B1819D012F5F01
:1010CE003F4F318320838C93278130852F5F3F4F95
:1010DE003087278314C08B01EC01FB010184F2855C
:1010EE00E02D0995892BE1F6D80117968D919C91EB
:1010FE001897019618969C938E931797CE01DF91B1
:08110E00CF911F910F9108958C
:10111600CF92DF92EF920F931F936B01E82E01158A
:10112600110519F101501109F6018491E7FC80813E
:10113600882399F0F901949147FD9081992369F0EC
:101146000115110551F0891308C08FEFC81AD80A86
:10115600E80A2F5F3F4F4F4FE5CF90E0F90124910A
:1011660047FD2081821B910902C080E090E01F911B
:0A1176000F91EF90DF90CF900895E5
:10118000CF92DF92EF926B01E82E20E019C08091A0
:10119000B00190E001968F779078992324F401971D
:1011A00080689F6F01969091AF018917E1F3E091FC
:1011B000B001F0E0EE5DFE4F30838093B0012F5F11
:1011C000AE2DC601820F911DA11DFC013491A7FD1A
:1011D00030813111DCCFE1ECF0E0808180628083EE
:0811E000EF90DF90CF9008951D
:1011E8001F920F920FB60F9211248F939F93EF9334
:1011F800FF939091B0018091AF019817B9F0E091F9
:10120800AF01F0E0EE5DFE4F80818093C6008091D3
:10121800AF0190E001968F779078992324F4019795
:1012280080689F6F01968093AF0105C0E1ECF0E004
:1012380080818F7D8083FF91EF919F918F910F9097
:081248000FBE0F901F901895D6
:10125000CF92DF92EF92FF920F931F93CF93DF9382
:101260008C017B010E94680A0E94B30A8823D1F096
:101270000E94810AC82E0E94810AC82F0E94810AFA
:10128000D82E0E94810AD82F0E94810ACC0DCD0D44
:10129000CD0F8C1306C0F701C082F801D08281E027
:1012A00001C080E0DF91CF911F910F91FF90EF90EF
:0612B000DF90CF900895CD
:1012B600AFE0B0E0E1E6F9E00C94090A0E891F8977
:1012C60086E08D831A8309838FEF9FE79F838E8342
:1012D6009E01255E3F4F488D598D6A8DCE01019640
:1012E6000E94A401E885F985E00FF11F10822F9670
:0612F600E4E00C945B0A29
:1012FC00A1E21A2EAA1BBB1BFD010DC0AA1FBB1F0E
:10130C00EE1FFF1FA217B307E407F50720F0A21B7F
:10131C00B30BE40BF50B661F771F881F991F1A94EC
:10132C0069F760957095809590959B01AC01BD0116
:04133C00CF01089540
:101340008093BB0084E88093BC0080E197E206C0F4
:10135000019721F481E08093A20108952091BC00BF
:101360002223B4F78091B900887F883139F0883220
:0E13700029F0803419F081E08093A2010895E5
:10137E0084E88093BC0080E197E207C0019729F4CE
:10138E0081E08093A20180E008952091BC00222389
:10139E00ACF78091B900887F883529F081E0809381
:0C13AE00A2018FEF08958091BB0008950C
:1013BA0084EC8093BC0080E197E207C0019729F48E
:1013CA0081E08093A20180E008952091BC0022234D
:1013DA00ACF78091B900887F803529F081E080934D
:0C13EA00A20180E008958091BB000895EE
:1013F6002F923F924F925F926F927F928F929F921F
:10140600AF92BF92CF92DF92EF92FF920F931F930C
:10141600CF93DF93CDB7DEB7CA1BDB0B0FB6F894BD
:08142600DEBF0FBECDBF09942B
:10142E0084EA8093BC0080E197E206C0019721F424
:10143E0081E08093A20108952091BC002223B4F78D
:10144E008091B900887F883029F0803119F081E0D1
:06145E008093A201089535
:10146400CF92DF92EF926B01E82EA82FCB014115AA
:10147400510531F48C199D09EF90DF90CF900895B8
:10148400FC012491A7FD20812223A1F30196A11D33
:0614940041505109ECCFAC
:10149A002A88398848885F846E847D848C849B84FA
:1014AA00AA84B984C884DF80EE80FD800C811B8108
:1014BA00AA81B981CE0FD11D0FB6F894DEBF0FBE37
:0614CA00CDBFED01089505
:1014D00087B1816087B988B18E7F88B92FEF80EEA0
:1014E00090E0215080409040E1F700C0000088B1BA
:1014F000816088B920EA2A95F1F787B18E7F87B994
:0215000008954C
:1015020020E030E080E011C0309BFECF90EA9A9557
:10151200F1F7309B07C090E0880F991F81603099E6
:10152200FECF01C0880F2F5F3F4F2830310564F393
:0215320008951A
:101534000E944E0B0E94340B78946EE173E080E0BD
:101544000E94C0080E94AE070E94C8038091B201A5
:101554008130C1F780E091E00E94B3061092B2019D
:02156400F1CFC5
:1015660085ED8A95F1F7000030990EC08FE391E082
:101576000197F1F700C00000309902C080E001C079
:0C15860081E03099FECF089580E00895C8
:101592009DEC899F912D112496959695969520E123
:1015A200929FA0011124990F292F220F220F920F2F
:0615B200891B842B089543
:1015B800E1E8F0E080818C60808383E294EF90938F
:1015C800890080938800EFE6F0E080818260808364
:0215D800089574
:1015DA001F920F920FB60F9211248F9381E080937E
:1015EA00AE018093AD018F910F900FBE0F901F90A7
:0215FA00189542
:1015FC00DB018F939F930E94290BBF91AF91A29F08
:10160C00800D911DA39F900DB29F900D11240895F4
:10161C00A29FB001B39FC001A39F700D811D112427
:0E162C00911DB29F700D811D1124911D089516
:10163A00E9EBF0E080818C7F808388E48093B800B6
:08164A0084E08093BC000895C8
:101652000E940E0BA59F900DB49F900DA49F800D2C
:06166200911D1124089502
:1016680087E68093C40088E98093C10086E0809370
:04167800C20008950F
:10167C0091110C945B0B803219F089508550C8F78E
:02168C000895BF
:0E168E002AE030E040E050E00E94450508955B
:0A169C000E941D0B0E94DC0A089555
:0816A60084E98093BC00089563
:0816AE000E94470BCB010895D7
:0616B60099278827089522
:0416BC000C9400008A
:0116C0000227
:00000001FF
